:020000040800F2
:10000000901E0020DD01000869240008C3190008C3
:1000100065240008890700089126000800000000F8
:100020000000000000000000000000004501000882
:100030008D07000800000000890100085525000810
:10004000F7010008F7010008F7010008F7010008B0
:10005000F7010008F7010008F7010008F7010008A0
:10006000F7010008F7010008F7010008F701000890
:10007000F7010008F7010008F7010008F701000880
:10008000F7010008F7010008F7010008F701000870
:10009000F7010008F7010008F7010008F701000860
:1000A000F7010008F7010008F7010008F701000850
:1000B000F7010008F7010008F7010008F701000840
:1000C000F7010008F7010008F7010008F701000830
:1000D000F7010008F7010008F7010008F701000820
:1000E000F7010008F7010008F7010008F701000810
:1000F000F7010008F7010008F7010008F701000800
:10010000F7010008F7010008F7010008F7010008EF
:10011000F7010008F7010008D5250008F7010008DD
:10012000F7010008F7010008F7010008F7010008CF
:10013000DFF80CD000F098FA00480047D12F0008F3
:10014000901E0020224B19680868B0E8F00F80F379
:100150000988BFF36F8F4FF0000080F311884EF0D5
:100160000D0E70470000000006480068006880F32C
:10017000088862B661B6BFF34F8FBFF36F8F00DFA1
:1001800000BF00BF08ED00E0EFF30980BFF36F8F01
:100190000F4B1A6820E9F00F106008B54FF05000BF
:1001A00080F31188BFF34F8FBFF36F8F04F052F8C5
:1001B0004FF0000080F31188BDE808401968086816
:1001C000B0E8F00F80F30988BFF36F8F704700BF6E
:1001D00028000020EFF305807047000006488047A4
:1001E00006480047FEE7FEE7FEE7FEE7FEE7FEE71C
:1001F000FEE7FEE7FEE7FEE7D12500083101000833
:10020000202A04DB203A21FA02F00021704721FA6B
:1002100002F3D040C2F120029140084319467047D2
:1002200040EA01039B0703D009E008C9121F08C078
:10023000042AFAD203E011F8013B00F8013B521EF8
:10024000F9D27047D2B201E000F8012B491EFBD26F
:1002500070470022F6E710B513460A4604461946D1
:10026000FFF7F0FF204610BD30B50B4601460020D9
:100270002022012409E021FA02F59D4205D303FA68
:1002800002F5491B04FA02F52844151EA2F10102E9
:10029000F1DC30BD2DE9F05F0546002092469B461B
:1002A00088460646814640241BE02846414647468C
:1002B0002246FFF7A5FF53465A46C01A914110D374
:1002C00011461846224600F0E1F92D1A67EB0108A5
:1002D0004F4622460120002100F0D8F917EB000913
:1002E0004E41201EA4F10104DFDC484631462A4677
:1002F0004346BDE8F09F2DE9FE4F804681EA0300AA
:10030000C00F0C46009021F0004123F00045B8EBEF
:100310000200A94105D24046214690461C460B46A4
:10032000024623F00040104347D0270DC7F30A00D0
:10033000C3F30A510290401A019040286BDAC3F3CC
:10034000130040F4801B0098924620B10023D2EBAA
:10035000030A63EB0B0B01985946C0F1400250466B
:1003600000F094F906460D4650465946019A00F0B1
:100370009CF910EB08006141002487EA115284EADD
:10038000E7731A4340D0009A62B3019A012A4FEAF8
:10039000075215DC001B61EB02014FF0004202EA3C
:1003A0000752CDE90042001C41F5801132462B4630
:1003B00000F09CF903B0BDE8F08F40462146F9E714
:1003C000001B61EB0201001C41F5801300185B412A
:1003D0002018A2F5001747EB030140EAD570B619C3
:1003E0006D4111E06D084FEA360645EAC0754FEAE7
:1003F0000752001B61EB0201001C41F58011490806
:100400004FEA30000019514132462B4603B0BDE897
:10041000F04F00F05CB90098012240000023D0EBBF
:10042000020263EBE073009821464FEAE074B8EBF8
:10043000000061EB0401E9E783F000435BE781F032
:10044000004158E72DE9FE4F81EA030404F000441F
:1004500021F0004100944FF0000B23F0004350EADC
:1004600001045ED052EA03045BD0C3F30A54C1F323
:100470000A552C44A4F2F3340194A0FB0254C1F3B6
:10048000130141F48011C3F3130343F4801301FB00
:10049000024400FB034E840A970A44EA815447EA67
:1004A0008357A4FB076802958D0A05FB07854FEA71
:1004B000932C04FB0C542705029D4FEA065847EA8B
:1004C0001637B5EB08056EEB070C870E920E47EA60
:1004D000811742EA8312A7FB0201B6EB0B0164EB22
:1004E00000042B0D43EA0C335E1844EB1C50DA4633
:1004F0005146E7FB0201C5F313044FEA0B3343EA0D
:1005000014534FEA0432019C43EA0603A4F10C049D
:100510000294009CCDE900B400F0E8F803B0BDE817
:10052000F08F00200146F9E72DE9F04D81EA030440
:1005300004F0004B21F0004514464FF0000A23F070
:10054000004150EA050220D054EA01021DD0C5F353
:100550000A570246C5F31303C1F31300C1F30A5649
:1005600040F4801543F48013A7EB0608101BD64611
:1005700008F2FD3873EB050002D308F1010801E031
:1005800092185B41B8F1000F03DA00200146BDE884
:10059000F08D00204FF48011064684460EE0171BB4
:1005A00073EB050705D3121B63EB050306434CEA07
:1005B000010C49084FEA300092185B4150EA0107EC
:1005C000EDD152EA030012D082EA040083EA050169
:1005D000084305D0101BAB4106D20122002306E0E0
:1005E00000224FF0004302E06FF0010253101AEBBB
:1005F00006004CEB085110EB0A0041EB0B01BDE883
:10060000F04D00F064B8C1F30A52C1F3130140F297
:10061000FF3341F480119A4202DA0020014670470C
:1006200040F233439A42A2F2334202DC5242FFF7D5
:10063000E7BD00F02BB8000030B5041E71F10004D6
:1006400004DB4FF00044404264EB0101141E73F1DF
:10065000000405DB1C464FF00043524263EB0403E9
:10066000994208BF904230BD064C074D06E0E06855
:1006700040F0010394E8070098471034AC42F6D3E9
:10068000FFF75AFDA88B0008C88B0008202A04DB5E
:10069000203A00FA02F1002070479140C2F1200395
:1006A00020FA03F3194390407047202A06DBCB174A
:1006B000203A41FA02F043EAE07306E041FA02F31D
:1006C000D040C2F12002914008431946704710B54E
:1006D000141E73F1000408DA401C41F10001921865
:1006E0005B411A4301D120F0010010BD2DE9F04D0E
:1006F00092469B4611B1B1FA81F202E0B0FA80F263
:1007000020329046FFF7C2FF04460F4640EA0A0037
:1007100041EA0B0153465A46084313D0114653EAA7
:10072000010019D0C8F140025046FFF769FD0546A7
:100730000E46504659464246FFF7A8FF084305D0EB
:10074000012004E020463946BDE8F08D0020054335
:1007500046EAE0762C4337430A986305E40AA0EBA7
:1007600008000022FD0A44EA47540A3002D500205E
:100770000146E9E7010510196941DDE9084500195D
:100780006941BDE8F04DA2E700BFFEE7704772B6D1
:1007900000BFFEE770B50446B3F5804F13D1D1E931
:1007A000000540EA05108D6840EA05208D69284360
:1007B0008D8940EA054054F82250064E35402843C2
:1007C00044F8220003E06FF0704044F8220000205B
:1007D00070BD00000000F0CF70B50246086852F806
:1007E000200020F001000E6842F8260088680828E2
:1007F00001D1402300E00023486818438E6830434D
:10080000CE6830430E6930434E693043CE69304381
:100810000E6A30434E6A30438E6A3043CE6A3043AC
:100820000E6B40EA060488690443486B0443074D95
:1008300045F4806545F4E025086852F82000A84397
:1008400020430E6842F82600002070BD7FFB0800A0
:1008500010B50346D1E9000440EA04108C6840EA70
:1008600004208C8940EA0444088A401E44EA00546B
:10087000087D801E44EA00608C692043541C43F8C4
:100880002400002010BD000070B5044600F000FAFE
:1008900006462546681C10B104480078054400BF90
:1008A00000F0F6F9801BA842FAD370BD20000020AA
:1008B00000B585B0002001900290039004901C4880
:1008C000006808B105B000BD01201949086000BFEB
:1008D0001848406940F480701649486108464069EC
:1008E00000F48070009000BF00BF4FF68070019050
:1008F000022002900320049001A90F4800F022F882
:100900004CF6B3700190022002900320049001A9DC
:100910000A4800F017F8802001900220029003207E
:10092000049001A9064800F00DF800BFCAE70000D6
:100930001000002000100240001801400014014087
:10094000000C01402DE9F847024600239C467BE15C
:100950004FF0010808FA03F4D1F8008008EA040017
:10096000A0427DD1DFF8F4A2D1F80480A8EB0A09F7
:10097000D0453AD014DCB8F1030F50D009DCB8F1FF
:10098000000F31D0B8F1010F1CD0B8F1020F49D1DE
:1009900020E0B8F1110F18D0B8F1120F42D11EE0CB
:1009A000B9F5881F25D006DCB9F5803F20D0B9F510
:1009B000801F37D11AE0B9F5001F18D0B9F5041F10
:1009C00030D117E0D1F80CC02DE0D1F80C8008F13F
:1009D000040C28E0D1F80C8008F1080C23E0D1F8D1
:1009E0000C8008F10C0C1EE000BF00BF00BF00BF70
:1009F00000BF00BFD1F80880B8F1000F02D14FF05E
:100A0000040C0BE0D1F80880B8F1010F03D14FF0CE
:100A1000080C146102E04FF0080C546103E04FF041
:100A2000000C00E000BF00BFFF2801D8904601E0A5
:100A300002F104084646FF2802D84FEA830803E083
:100A4000A3F108084FEA88084746D6F800804FF01F
:100A50000F0909FA07F928EA09080CFA07F900E072
:100A60007AE048EA0908C6F80080D1F8048008F066
:100A70008058B8F1805F6FD100BFDFF8E481D8F80B
:100A8000188048F00108DFF8D891C9F81880C846E6
:100A9000D8F8188008F00108CDF8008000BF00BF2A
:100AA0004FEAB9384FEA930958F829504FEA83784A
:100AB0004FEA18794FF00F0808FA09F825EA0805F7
:100AC000DFF8A081424502D14FF0000824E0DFF8B2
:100AD0009881424502D14FF001081DE0DFF88C817A
:100AE000424502D14FF0020816E0DFF8848142450A
:100AF00002D14FF003080FE0DFF87881424502D1C0
:100B00004FF0040808E0DFF87081424502D14FF051
:100B1000050801E04FF006084FEA83794FEA19799A
:100B200008FA09F848EA0505DFF850814FEA930909
:100B300048F82950D1F8048008F48018B8F5801FCF
:100B40000BD1DFF83C81D8F8008048EA0008DFF8D4
:100B50003091C9F800800AE075E0DFF82481D8F808
:100B6000008028EA0008DFF81891C9F80080D1F861
:100B7000048008F40018B8F5001F0ED1DFF80081DA
:100B800008F10408D8F8008048EA0008DFF8F0907F
:100B900009F10409C9F800800DE0DFF8E48008F1EC
:100BA0000408D8F8008028EA0008DFF8D49009F19A
:100BB0000409C9F80080D1F8048008F40038B8F5B9
:100BC000003F0ED1DFF8B880A8F10408D8F8008003
:100BD00048EA0008DFF8A890A9F10409C9F80080E4
:100BE0000DE0DFF89C80A8F10408D8F8008028EA1E
:100BF0000008DFF88C90A9F10409C9F80080D1F849
:100C0000048008F48038B8F5803F0ED1DFF870809A
:100C1000A8F10808D8F8008048EA0008DFF86090DA
:100C2000A9F10809C9F800800DE0DFF85480A8F1A7
:100C30000808D8F8008028EA0008DFF84490A9F1F5
:100C40000809C9F800805B1CD1F8008028FA03F875
:100C5000B8F1000F7FF47CAEBDE8F88700001110FA
:100C60000010024000080140000C0140001001404B
:100C70000014014000180140001C01400800014020
:100C8000080401400AB1016101E00B0403617047EF
:100C90000148006870470000180000200348006801
:100CA000034909780844014908607047180000208A
:100CB0002000002010B50848006840F010000649E8
:100CC0000860032000F0E2F80F2000F007F800F0C1
:100CD0005FF8002010BD0000002002402DE9F04127
:100CE00088B004460027B846002600BF2348C069E4
:100CF00040F010002149C8610846C06900F01000AA
:100D0000019000BF00BF02A903A800F099F9069F57
:100D10001FB900F0BDF9054602E000F0B9F9450041
:100D20001748B5FBF0F0A0F1010816481649086015
:100D300040F2E7311448C160C0F80480002101612D
:100D40008160816100F0FAFC064696B90E4800F019
:100D500029FD06466EB9362000F04AF8102C07D25D
:100D600000222146362000F053F80848046000E0D5
:100D70000126304608B0BDE8F081000000100240B6
:100D800040420F0000100040740100201C000020B1
:100D900008B500BF1448806940F00100124988611D
:100DA0000846806900F00100009000BF00BF00BF4E
:100DB0000846C06940F08050C8610846C06900F02C
:100DC0008050009000BF00BF00220F21901E00F055
:100DD0001FF800BF0549486820F0E06040F000704F
:100DE000486000BF08BD0000001002400000014044
:100DF00001460846002809DB00F01F0301229A4043
:100E000043099B0003F1E023C3F8002100BF7047B2
:100E10002DE9F05F80460D461646002701F04CFC98
:100E2000074639462A46334601F00700C0F1070A53
:100E3000BAF1040F02D94FF0040A01E0C0F1070A29
:100E4000D14600F1040ABAF1070F02D24FF0000AAE
:100E500001E0A0F1030AD4464FF0010A0AFA09FAA8
:100E6000AAF1010A0AEA020A0AFA0CFA4FF0010B87
:100E70000BFA0CFBABF1010B0BEA030B4AEA0B0478
:100E80002146404601F020FCBDE8F09F00BF00F085
:100E90000702064B19684FF6FF031940044B0B433A
:100EA00043EA0221014B196000BF70470CED00E0DE
:100EB0000000FA0570B504460D460CB9012070BD5E
:100EC0005A48006800F00700A8420ED25748006850
:100ED00020F007002843554908600846006800F0E4
:100EE0000700A84201D00120E9E7207800F00200C5
:100EF00002281DD1207800F00400042805D14C48B8
:100F0000406840F4E0604A494860207800F00800FA
:100F1000082805D14648406840F46050444948607C
:100F20004348406820F0F000A16808434049486009
:100F3000207800F0010078B36068012806D13C48B1
:100F4000006800F4003090B90120B8E7606802281A
:100F500006D13748006800F0007040B90120AEE7C4
:100F60003348006800F0020008B90120A7E73048C4
:100F7000406820F00300616808432D494860FFF78E
:100F800087FE064609E0FFF783FE801B41F28831A9
:100F9000884202D9032092E707E02548406800F024
:100FA0000C006168B0EB810FEDD12048006800F0C3
:100FB0000700A8420ED91D48006820F0070028430A
:100FC0001A4908600846006800F00700A84201D0EE
:100FD000012074E7207800F00400042807D11448A9
:100FE000406820F4E060E1680843114948602078D7
:100FF00000F00800082808D10D48406820F460502F
:10100000216940EAC1000A49486000F051F80849E6
:101010004968C1F30311074A515CC840064908609A
:1010200006480068FFF75AFE002048E7002002400B
:101030000010024022500008240000201C00002064
:101040000F2202600D4A526802F0030242600B4A0E
:10105000526802F0F0028260084A526802F4E062CC
:10106000C260064A526802F46052D2080261044A21
:10107000126802F007020A60704700000010024088
:101080000020024001480068704700002400002052
:1010900000B5FFF7F7FF04494968C1F30221034A8D
:1010A000515CC84000BD00000010024032500008F2
:1010B00070B500210022002400230020134D696830
:1010C00001F00C05F5B1042D02D0082D19D101E075
:1010D0000F4819E00F4DC1F38346AB5D01F4803535
:1010E00055B10A4D6D68C5F340450B4E725D084D14
:1010F0005D43B5FBF2F402E0084D03FB05F4204626
:1011000002E000BF024800BF00BF70BD00100240F7
:1011100000127A00105000082050000800093D001D
:10112000F8B504460CB90120F8BD207800F00100A4
:10113000002878D0F848406800F00C0004280CD053
:10114000F548406800F00C00082811D1F2484068CA
:1011500000F48030B0F5803F0AD1EF48006800F419
:10116000003000285FD0606800285CD10120DBE7F8
:1011700000BF6068B0F5803F06D1E748006840F4E2
:101180008030E549086028E0606858B9E2480068A6
:1011900020F48030E04908600846006820F4802090
:1011A00008601AE06068B0F5A02F0BD1DA4800683B
:1011B00040F48020D84908600846006840F4803038
:1011C00008600AE0D448006820F48030D249086002
:1011D0000846006820F48020086000BF606888B17D
:1011E000FFF756FD054606E0FFF752FD401B642859
:1011F00001D9032098E7C848006800F400300028AF
:10120000F2D010E0FFF744FD054606E0FFF740FD91
:10121000401B642801D9032086E7BF48006800F41A
:1012200000300028F2D1207800F00200022857D1C7
:10123000B948406800F00C0050B1B748406800F071
:101240000C00082818D1B448406800F4803098B9E0
:10125000B148006800F0020020B12069012801D0E7
:10126000012061E7AC48006820F0F800616940EABD
:10127000C100A949086033E02069E8B10120A7490D
:101280000860FFF705FD054606E0FFF701FD401B7E
:10129000022801D9032047E79F48006800F00200B8
:1012A0000028F2D09C48006820F0F800616940EA0C
:1012B000C1009949086013E0002098490860FFF7D1
:1012C000E7FC054606E0FFF7E3FC401B022801D9D6
:1012D000032029E79048006800F002000028F2D1BE
:1012E000207800F0080008282DD1A069B8B10120AD
:1012F0008B490860FFF7CCFC054606E0FFF7C8FC09
:10130000401B022801D903200EE78348406A00F001
:1013100002000028F2D0012001F0A8F813E000201C
:101320007F490860FFF7B4FC054606E0FFF7B0FC14
:10133000401B022801D90320F6E67748406A00F0F6
:1013400002000028F2D1207800F00400042873D1B4
:1013500000277148C06900F0805070B900BF6E4826
:10136000C06940F080506C49C8610846C06900F00F
:101370008050009000BF00BF01276A48006800F459
:101380008070B0B96748006840F4807065490860B3
:10139000FFF77EFC054606E0FFF77AFC401B642859
:1013A00001D90320C0E65F48006800F4807000287F
:1013B000F2D000BFE068012806D15748006A40F02B
:1013C00001005549086227E0E06858B95248006AB0
:1013D00020F00100504908620846006A20F004002D
:1013E000086219E0E06805280BD14B48006A40F01C
:1013F0000400494908620846006A40F0010008629A
:101400000AE04548006A20F00100434908620846A6
:10141000006A20F00400086200BFE068A0B1FFF796
:1014200037FC054609E0FFF733FC401B41F28831E9
:10143000884202D9032077E622E03748006A00F0AC
:1014400002000028EFD012E0FFF722FC054608E07A
:10145000FFF71EFC401B41F28831884201D903206E
:1014600062E62D48006A00F002000028F0D1012F4A
:1014700005D12948C06920F080502749C86100BFC4
:10148000E069C8B32448406800F00C00082860D028
:10149000E069022848D1002020490866FFF7F8FBE0
:1014A000054606E0FFF7F4FB401B022801D90320A4
:1014B0003AE61948006800F000700028F2D1206A6E
:1014C000B0F5803F07D11448406820F40030A1688F
:1014D000084311494860D4E9080108430E494968A6
:1014E00021F4741108430C49486001200B49086637
:1014F000FFF7CEFB054607E03DE0FFF7C9FB401BC9
:10150000022801D903200FE60348006800F00070AC
:101510000028F2D02FE000000010024000004242FC
:101520008004424200700040002014490866FFF722
:10153000AFFB054606E0FFF7ABFB401B022801D9D5
:101540000320F1E50E48006800F000700028F2D199
:1015500011E0E069012800D1E6E50948466806F493
:101560008031206A814204D106F47011606A8142A0
:1015700001D00120D8E50020D6E50000000042425D
:101580000010024010B504460CB9012010BD606A7D
:1015900038B96068B0F5827F00D105E00021E161D3
:1015A00002E00021216161610021A16294F85100F3
:1015B00028B9002084F85000204600F043F80220AB
:1015C00084F851002068006820F04000216808601D
:1015D000A08800F48270218901F404410843A189A4
:1015E00001F400610843217C01F002010843217DE0
:1015F00001F001010843218B01F400710843217FB0
:1016000001F0380108432021095D01F08001084301
:10161000218D01F400510843216808600421A0696C
:1016200001EA1040216848602068C06920F4006029
:101630002168C86100206065012084F85100002005
:10164000A4E7000010B586B0044600200290039085
:10165000049005901949206888422DD100BF184890
:10166000806940F48050164988610846806900F41A
:101670008050019000BF00BF00BF0846806940F065
:10168000040088610846806900F00400019000BFF2
:1016900000BFA0200290022003900320059002A921
:1016A0000848FFF74FF94020029000200390049073
:1016B00002A90448FFF746F906B010BD003001400A
:1016C000001002400008014070B504460E46154661
:1016D0001CB1A069B0F5807F01D1012070BD94F8E4
:1016E000410028B9002084F84000204600F01FF88F
:1016F00004F108012068FFF76FF83146A2682068FE
:10170000FFF7A6F82946236BD4E90102FFF742F858
:10171000A168206850F8210040F00100A26821680B
:1017200041F82200012084F841000020D6E710B5DE
:101730000446FFF7BDF810BD7047704710B504466A
:101740000CB9012010BD94F83D0028B9002084F8A0
:101750003C00204600F025F8022084F83D00211DC1
:10176000206800F03FFF012084F8460000BF84F8A5
:101770003E0001213F2001554020015541200155E7
:1017800000BF00BF012084F84200432001554420DF
:1017900001554520015500BF012084F83D0000207F
:1017A000D0E77047014691F83D00012801D00120A3
:1017B0007047022081F83D000868C06840F00100D1
:1017C0000B68D860164B0868984213D0154B086810
:1017D00098420FD00868B0F1804F0BD0124B0868C8
:1017E000984207D0114B0868984203D0104B086804
:1017F00098420CD10868806800F00702062A0CD0D5
:101800000868006840F001000B68186005E008688F
:10181000006840F001000B6818600020C8E7000075
:10182000002C01400034014000040040000800404A
:10183000000C0040704770B504462068C5682068F9
:10184000066906F00200022819D105F002000228FC
:1018500015D1401F21680861012020772068806928
:1018600000F0030018B12046FFF7E4FF05E0204632
:1018700000F097F8204600F095F80020207706F059
:101880000400042819D105F00400042815D1C04330
:1018900021680861022020772068806900F4407088
:1018A00018B12046FFF7C6FF05E0204600F079F8A2
:1018B000204600F077F80020207706F0080008287E
:1018C00019D105F00800082815D1C0432168086126
:1018D000042020772068C06900F0030018B120467A
:1018E000FFF7A8FF05E0204600F05BF8204600F077
:1018F00059F80020207706F01000102819D105F0C3
:101900001000102815D1C0432168086108202077F5
:101910002068C06900F4407018B12046FFF78AFFC4
:1019200005E0204600F03DF8204600F03BF800209E
:10193000207706F0010048B105F0010030B16FF0EA
:10194000010021680861204600F02EF806F08000B2
:10195000802809D105F08000802805D1C043216886
:1019600008612046FFF7E8FE06F04000402809D154
:1019700005F04000402805D1C04321680861204699
:1019800000F01EF806F02000202809D105F0200004
:10199000202805D1C043216808612046FFF7CDFE0D
:1019A00070BD70477047000010B5044603492068B9
:1019B000884201D1FFF772F910BD0000001000400D
:1019C000704700BFFEE7000010B5044634B10022A6
:1019D0004FF480510448FFF755F904E00122110348
:1019E0000148FFF74FF910BD001401402DE9F04107
:1019F00006460F4614461D462B46224639463046BB
:101A000000F024F904FB05F00249098800F08EF883
:101A1000BDE8F081B600002001B502E00098401E4C
:101A2000009000980028F9D108BD00002DE9F05F72
:101A3000804689461646A6F120001FFA80FA1E4904
:101A4000096889881C4A1268D28801FB02F0C11714
:101A500000EB5171C1F3C7071748006800680AFB23
:101A6000070B15480068C3881348006882884946F8
:101A7000404600F0EBF82C2000F094FB002416E028
:101A8000002510E01BF8040080212941084020B106
:101A90000A48008800F08AFB03E00948008800F04B
:101AA00085FB681CC5B2082DECDB601CC4B2BC42CF
:101AB000E6DBBDE8F09F0000B0000020B40000208D
:101AC000B600002070B504460D46002624E03046DE
:101AD000134909688988084412490988884205DD44
:101AE00000260F480068C088204484B220460C4974
:101AF0000968C98808440C490988884201DD002624
:101B000000242A7821463046FFF790FF6D1C0448D8
:101B100000688088304486B228780028D7D170BD0C
:101B2000B0000020A8000020AA00002070B50446E4
:101B30000D4600262C2000F035FB00BF03E02846B0
:101B400000F034FB761CA642F9D370BD10B50446F4
:101B5000072C00DD10BD31480470204604EBD07125
:101B60004910A4EB410139B9F0202D4908804FF408
:101B7000A0702C49088006E04FF4A0702849088026
:101B8000F02028490880362000F00CFB2648008809
:101B900049F24131884205D1082141EA441000F060
:101BA00005FB0AE02048008848F25251884204D1DF
:101BB000002141EA441000F0F9FA2A2000F0F2FA7C
:101BC000002000F0F3FA002000F0F0FA1449098830
:101BD000491EC1F3072000F0E9FA11490978491EAE
:101BE000C8B200F0E3FA2B2000F0DCFA002000F08D
:101BF000DDFA002000F0DAFA0A490988491EC1F32B
:101C0000072000F0D3FA07490978491EC8B200F04E
:101C1000CDFA2C2000F0C6FA00BF9BE7AC000020F4
:101C2000A8000020AA000020AE00002010B501206E
:101C3000FFF7CAFE00F0A0FA00F038F8024800787A
:101C4000FFF784FF10BD0000AC0000202DE9F0413B
:101C500004460D4616461F462A2000F0A3FA20121D
:101C600000F0A4FAE0B200F0A1FAA119491EC1F3F4
:101C70000F2000F09BFAA119491EC8B200F096FA95
:101C80002B2000F08FFA281200F090FAE8B200F052
:101C90008DFAE919491EC1F30F2000F087FAE919FE
:101CA000491EC8B200F082FABDE8F08110B500F01C
:101CB00025FAFE4908800846008849F241318842E9
:101CC0007ED1CF2000F06EFA002000F06FFA812064
:101CD00000F06CFA302000F069FAED2000F062FAB2
:101CE000642000F063FA032000F060FA122000F094
:101CF0005DFA812000F05AFAE82000F053FA8520BE
:101D000000F054FA102000F051FA782000F04EFA5A
:101D1000CB2000F047FA392000F048FA2C2000F0E0
:101D200045FA002000F042FA342000F03FFA062085
:101D300000F03CFAF72000F035FA202000F036FAE7
:101D4000EA2000F02FFA002000F030FA002000F026
:101D50002DFAB12000F026FA002000F027FA1B200F
:101D600000F024FAB62000F01DFA0A2000F01EFA56
:101D7000A22000F01BFAC02000F014FA352000F079
:101D800015FAC12000F00EFA112000F00FFAC5205C
:101D900000F008FA452000F009FA452000F006FAA4
:101DA000C72000F0FFF9A22000F000FAF22000F0B6
:101DB000F9F9002000F0FAF9262000F0F3F900E02C
:101DC00096E0012000F0F2F9E02000F0EBF90F209E
:101DD00000F0ECF9262000F0E9F9242000F0E6F903
:101DE0000B2000F0E3F90E2000F0E0F9092000F0EC
:101DF000DDF9542000F0DAF9A82000F0D7F94620E8
:101E000000F0D4F90C2000F0D1F9172000F0CEF941
:101E1000092000F0CBF90F2000F0C8F9072000F0EE
:101E2000C5F9002000F0C2F9E12000F0BBF9002064
:101E300000F0BCF9192000F0B9F91B2000F0B6F948
:101E4000042000F0B3F9102000F0B0F9072000F0F2
:101E5000ADF92A2000F0AAF9472000F0A7F93920AF
:101E600000F0A4F9032000F0A1F9062000F09EF98B
:101E7000062000F09BF9302000F098F9382000F09F
:101E800095F90F2000F092F9362000F08BF9C82068
:101E900000F08CF92A2000F085F9002000F086F986
:101EA000002000F083F9002000F080F9EF2000F01E
:101EB0007DF92B2000F076F9002000F077F9002062
:101EC00000F074F9012000F071F93F2000F06EF984
:101ED0003A2000F067F9552000F068F9112000F071
:101EE00061F97348FFF798FD292000F05BF901E1E3
:101EF0006E48008848F252518842F8D1CF2000F055
:101F000051F9002000F052F9C12000F04FF93020C3
:101F100000F04CF9ED2000F045F9642000F046F99E
:101F2000032000F043F9122000F040F9812000F076
:101F30003DF9E82000F036F9852000F037F910204F
:101F400000F034F9782000F031F9CB2000F02AF9C4
:101F5000392000F02BF92C2000F028F9002000F0A7
:101F600025F9342000F022F9022000F01FF9F720B3
:101F700000F018F9202000F019F9EA2000F012F919
:101F8000002000F013F9002000F010F9C02000F04C
:101F900009F9212000F00AF9C12000F003F911200D
:101FA00000F004F9C52000F0FDF82D2000F0FEF847
:101FB000332000F0FBF8362000F0F4F8002000F0A9
:101FC000F5F83A2000F0EEF8552000F0EFF8B120D7
:101FD00000F0E8F8002000F0E9F8172000F0E6F83B
:101FE000B62000F0DFF80A2000F0E0F8A22000F0B0
:101FF000DDF8F62000F0D6F8012000F0D7F8302008
:1020000000F0D4F8F22000F0CDF8002000F0CEF877
:10201000262000F0C7F8012000F0C8F8E02000F00A
:10202000C1F8D02000F0C2F8002000F0BFF8022074
:1020300000F0BCF8072000F0B9F80B2000F0B6F86B
:102040001A2000F0B3F8312000F0B0F8542000F06E
:10205000ADF8402000F0AAF8292000F0A7F81220DF
:1020600000F0A4F8122000F0A1F8122000F09EF871
:10207000172000F09BF8E12000F094F8D02000F049
:1020800095F8002000F092F8022000F08FF8072069
:1020900000F08CF8052000F089F8252000F086F883
:1020A0002D2000F083F8442004E00000AE00002062
:1020B000FCBF020000F07AF8452000F077F81C2001
:1020C00000F074F8182000F071F8162000F06EF897
:1020D0001C2000F06BF81D2000F068F8112000F0C3
:1020E00061F80548FFF798FC292000F05BF82C20E8
:1020F00000F058F810BD0000FCBF020010B500242D
:10210000042000F04FF800BF1748008800BF1648B1
:10211000008800F02BF804464FF6FF7000EA042414
:1021200000F024F8044348F25250844201D1204682
:1021300010BDD32000F036F800BF0B48008800BF68
:102140000948008800F012F804464FF6FF7000EAD4
:10215000042400F00BF8044349F24130844201D1D9
:102160002046E5E70020E3E7000002600148008820
:10217000704700000000026010B5002202210848EC
:10218000FEF780FD40F6FF20FFF746FC012202210A
:102190000348FEF777FD40F6FF20FFF73DFC10BD3A
:1021A000001801404FF0C041088070470149088085
:1021B000704700000000026070B5044600F00CF8A3
:1021C000C5882B460348028821460020FFF70EFCF5
:1021D00070BD0000A80000200148006870470000A2
:1021E000B0000020024A1080024A118070470000AF
:1021F000B4000020B60000200FB430B5C1B00446D2
:1022000046A8009001A8009A459900F043FA0020E2
:102210000090FFF7E1FFC088604385B201A928461E
:10222000FFF750FC41B030BC5DF814FB70B50446BC
:102230000D462A4621460248FEF724FD70BD0000E7
:10224000000C01401CB5094A0021094800F03CFF80
:10225000084908600020182103464FF48072CDE938
:10226000001005A1074802F0DBFB1CBDEC4F000885
:1022700095240008080000205461736B5F4C4544AE
:1022800000000000153D000800B587B01C2168461D
:10229000FDF7DFFF4FF020401849086018484860FC
:1022A0000020886002211548C160042101611021CD
:1022B000416100218161C161016241624FF480513D
:1022C00081620021C1620163416381630F2000903C
:1022D000019008200290002003901020049011200B
:1022E000059000200690002269460448FFF7ECF9AB
:1022F00008B1FEF74CFA07B000BD0000D400002082
:10230000040100A000B585B0002001900290039068
:10231000049000BF3D48806940F004003B4988615B
:102320000846806900F00400009000BF00BF00BFB5
:102330000846806940F0080088610846806900F01E
:102340000800009000BF00BF00BF0846806940F051
:10235000400088610846806900F04000009000BF9E
:1023600000BF00BF0846806940F020008861084631
:10237000806900F02000009000BF00BF01222321EF
:102380002348FEF77FFC00224FF480512148FEF7DE
:1023900079FC012211022048FEF774FC0022022180
:1023A0001E48FEF76FFC23200190012002900020C0
:1023B00003900120049001A91548FEF7C3FA4FF4D9
:1023C000805001900120029003900320049001A905
:1023D0001048FEF7B7FA4FF4807001900120029088
:1023E000002003900320049001A90B48FEF7AAFAED
:1023F000022001900120029003900320049001A983
:102400000648FEF79FFA05B000BD0000001002402C
:10241000000C014000140140000801400018014078
:1024200010B50E480E4908604FF4827048600021D4
:102430000B488160C160016141614FF400718161AD
:102440000821C16100210162416281620A21C162E9
:10245000FFF798F808B1FEF79AF910BD0030014077
:102460001C01002000BFFEE700BFFEE708B50849D9
:102470000968C9084FF47A72B1FBF2F14143009147
:1024800000BF00BF00994A1E00920029F9D108BD83
:102490002400002000BF4FF6FF7127480088FFF797
:1024A000A1FEFFF799FEC08824490988491E4843C8
:1024B00084B22046FFF780FE2048028820A10088D1
:1024C000FFF79AFE1D480088401C1C4908801A48E6
:1024D00000881F280ED0B0F5FC6F07D0B0F5784FFC
:1024E0000DD14FF4FC60144908800DE01F20124903
:1024F000088009E04FF478400F49088004E04FF667
:10250000FF700D49088000BF00BF4FF4FA7001F062
:10251000C1FD0A4800881428BDDBFFF75DFEC088B6
:1025200006490988491E484384B22046FFF744FE05
:10253000002002490880AEE70E0000200C000020B9
:1025400048656C6C6F204672656552544F53212567
:102550006400000010B54FF0E020006902F0F0FACE
:10256000012801D001F03AFF10BD00B58FB028213D
:1025700005A8FDF76EFE14216846FDF76AFE0120EE
:102580000590000406900020079001200990022089
:102590000C90C1030D914FF4E0110E9105A8FEF7C8
:1025A000BFFD08B1FEF7F3F80F2000900220019064
:1025B000002002904FF480600390002004900221DC
:1025C0006846FEF777FC08B1FEF7E1F80FB000BDF2
:1025D0007047000010B50248FFF72DF910BD00004C
:1025E0007401002010B50268244B98420ED0244B91
:1025F00098420BD0B0F1804F08D0224B984205D0C2
:10260000214B984202D0214B984203D122F0700214
:102610004B681A43194B98420ED0194B98420BD075
:10262000B0F1804F08D0174B984205D0164B984216
:1026300002D0164B984203D122F44072CB681A4361
:1026400022F080034C6943EA040202608B68C36293
:102650000B688362094B984202D0094B984201D122
:102660000B69036301234361036903F001031BB199
:10267000036923F00103036110BD0000002C014039
:10268000003401400004004000080040000C0040FD
:1026900000BFFEE737B514460846064B6A4621469A
:1026A00000F0FAF804466946002000F08CFC204651
:1026B0003EBD0000C72F000802480068C0F302209A
:1026C000704700000CED00E010B5002804DB0A079D
:1026D000130E054A135406E00A07140E034A00F0CD
:1026E0000F031B1FD45410BD00E400E018ED00E000
:1026F000EFF30580704702E008C8121F08C1002AE6
:10270000FAD170477047002001E001C1121F002A72
:10271000FBD170472DE9FF5F82B00021DDE9043075
:10272000020DDDF840B0034318D044F61050A2F279
:10273000FF3242431514119801281FD0A5EB0B005E
:10274000401C5FEA000A4FF000064E4FDFF8389158
:10275000B046504615D5CAF1000413E01198012483
:102760004AA3012801D16FEA0B010298119AC0E92E
:102770000031C0E9024206B0BDE8F09FCBF1000095
:10278000DFE704460021404A491842EB0450CDE9F6
:10279000001012E0E00707D032463B46404649466B
:1027A000FDF750FE8046894632463B4610461946A4
:1027B000FDF748FE06460F466410002CEAD1DDE91D
:1027C0000401DDE90023BAF1000F06DAFDF73AFE55
:1027D00042464B46FDF736FE05E0FDF7A5FE4246B4
:1027E0004B46FDF7A1FE04460E460022284BFDF79E
:1027F00023FF03D84FF0FF30014607E00022254BAE
:1028000020463146FDF777FDFDF7FDFE102409E077
:10281000002C0ADB0A220023FDF73CFD039B30322B
:102820001A55641E50EA0102F2D1641C039AC4F1E5
:1028300011031444119A012A03D0012208430DD137
:102840000AE0084304D000204FF0110B119072E70A
:10285000A3EB0B056D1E0DE05B4504DD4FF00002A0
:1028600005F1010504E003DA4FF00002A5F10105CE
:10287000002AECD002981199C0E90231C0E9004564
:1028800079E70000000014400000F03F3000000035
:102890000000F0430000E03F2DE9FF4F95B09B465C
:1028A0008946064600250FE2252877D100242746D1
:1028B000F84A0121059400E0044316F8013F203B4B
:1028C00001FA03F01042F7D130782A2811D06FF0C6
:1028D0002F033078A0F13002092A16D8059A44F067
:1028E000020402EB820203EB42021044761C0590C4
:1028F000EFE759F8042B0592002A03DA504244F41A
:102900000054059044F00204761C30782E2816D12D
:1029100016F8010F44F004042A280DD06FF02F029E
:102920003078A0F13003092B09D807EB870302EBBD
:102930004303C718761CF3E759F8047B761C3078FC
:102940006C280FD006DC4C2817D068280DD06A28D8
:1029500014D104E0742810D07A280FD10DE044F48B
:1029600000140AE044F4801401E044F44014727846
:10297000824202D104F58014761C761C30786628D9
:102980000BD013DC582877D009DC002875D04528F7
:10299000F6D04628F4D047281AD19DE118E06328E4
:1029A00035D0642879D0652812D195E1702873D08C
:1029B00008DC6728F1D069286FD06E280DD06F2809
:1029C00006D1B5E073282CD0752875D0782874D03E
:1029D0005A46179990476D1C75E1C4F302500228BE
:1029E00009D003280DD0D9F8001004280DD00D60AF
:1029F00009F1040967E1D9F80010EA17C1E90052AA
:102A0000F6E7D9F800100D80F2E70D70F0E719F83D
:102A1000041B8DF8001000208DF80100EA4601200B
:102A200003E059F804AB4FF0FF3061074FF00001AD
:102A300002D40DE008F101018846B9420FDA804561
:102A4000F8DB1AF808100029F4D108E008F10101B8
:102A500088468142FADB1AF808100029F6D1059859
:102A60005B46A0EB080721463846179A00F094FA17
:102A7000284400EB080507E04DE029E10DE01AF8D5
:102A8000010B5A4617999047B8F10108F7D25B46F7
:102A900021463846179A13E142E00A220092C4F315
:102AA00002524FF0000A022A08D059F804CB032A38
:102AB0004FEAEC710AD00DE029E02AE009F10701A4
:102AC00021F00702F2E802C1914609E00FFA8CFCFE
:102AD0004FEAEC71042A03D14FFA8CFC4FEAEC71F7
:102AE000002907DA0A460021DCF1000C61EB020143
:102AF0002D2202E0220504D52B228DF8042001228C
:102B000003E0E20701D02022F7E7904659E00A21CE
:102B100002E010220DE010214FF0000A00910BE0BE
:102B200010224FF0000A44F004040827009203E04A
:102B300008224FF0000A0092C4F30252022A05D084
:102B400059F804CB0021032A08D009E009F1070154
:102B500021F00702F2E802C1914605E01FFA8CFC61
:102B6000042A01D10CF0FF0C4FF00008220728D5F1
:102B7000702806D0009B83F0100353EA0A0305D0A7
:102B80000EE040228DF80420012208E05CEA0102F8
:102B900006D030228DF804208DF8050002229046E0
:102BA000009B83F0080353EA0A030AD15CEA01029E
:102BB00001D1620705D530228DF804204FF00108BD
:102BC0007F1E582804D034A003900EA802900DE078
:102BD00036A0F9E753466046009AFDF75BFB844652
:102BE0000398825C0298401E029002705CEA010029
:102BF000F0D1029806A9081A00F1200A600702D550
:102C000024F4803400E00127574502DDA7EB0A00D9
:102C100000E0002000EB0A01009005984144401AB2
:102C20000590E00306D45B462146179A059800F00C
:102C3000B3F90544002706E001A85A46C05D17997C
:102C400090476D1C7F1C4745F6DBE0030CD55B46C7
:102C50002146179A059800F09FF9054404E03020BA
:102C60005A46179990476D1C0099481E00900029FC
:102C7000F5DC08E0029802995A460078491C029156
:102C8000179990476D1CBAF10001AAF1010AF1DC15
:102C900065E1000009280100303132333435363720
:102CA0003839616263646566000000003031323398
:102CB0003435363738394142434445460000000038
:102CC00000F058F90544761C307800287FF4ECAD0C
:102CD00019B02846BDE8F08F620700D4062709F135
:102CE000070222F0070CFCE80223E14603F000484B
:102CF0005FEA080C02D00FF2702C0DE05FEA045C72
:102D000002D50FF2682C07E05FEAC47C02D00FF214
:102D1000602C01E0AFF2700C4FF0FF3823F000435D
:102D2000CDF850C065280CD006DC452809D04628CF
:102D30001DD047283DD13DE0662818D067287ED1B8
:102D400038E00021112F01DB112000E0781CCDE9D3
:102D5000000106A90EA8FFF7DDFCDDE90F010E9AC0
:102D600003910021009207F1010A04914DE04FF018
:102D700000400097CDE9011006A90EA8FFF7CAFC94
:102D8000DDE90F0203920E9B11990022DDF80CA0E1
:102D90000093049211B9791C00EB010AB7EB0A0009
:102DA00004D4C0F1FF3007F1010A0490AAEB070038
:102DB000019044E0012F00DA01270021112F01DDED
:102DC000112000E03846CDE9000106A90EA8FFF762
:102DD000A1FCDDE90F010E9A0391002104910092FC
:102DE000BA4621070CD40399514500DA8A46BAF154
:102DF000010F05DD009AAAF10101515C302908D0CC
:102E0000B84202DA10F1040F06DA0121CDE901100F
:102E100015E0AAF10101E9E7002805DC0499014465
:102E20000491AAEB000102E0411C514500DD8A46F5
:102E30000499401A401C01904FF000400290200776
:102E400004D40198504501DBCDF8048000208DF8B2
:102E50004F0002980DF14F07B0F1004F25D02B2005
:102E60000E9002984FF0020800280CDA40420290BF
:102E70002D200E9007E00A210298FDF7F5F9303178
:102E8000029007F8011DB8F10001A8F10108F2DC79
:102E900002980028EFD1791E0E980870307800F063
:102EA000200040F0450007F8020D12A8C01B00F1F9
:102EB00007081498007800B1012000EB0A0101987E
:102EC00001EBE07105984144401A401E0590E00373
:102ED00006D45B462146179A059800F05DF8054434
:102EE0001498007818B15A46179990476D1CE00362
:102EF00024D55B462146179A059800F04DF8054405
:102F00001CE00498002807DBDDE90301884203DDAB
:102F10000098405C179901E0179930205A46904775
:102F2000049805F10105401C04900198401E019091
:102F300004D12E205A46179990476D1CBAF1000112
:102F4000AAF1010ADDDC05E017F8010B5A461799D2
:102F500090476D1CB8F10001A8F10108F4DC5B4654
:102F60002146179A0598ABE62D0000002B000000C3
:102F7000200000002DE9F041044600251E461746BA
:102F8000880404D405E039462020B0476D1C641E37
:102F9000F9D52846BDE8F0812DE9F0410446002529
:102FA0001E469046C80301D5302700E0202788043C
:102FB00004D505E041463846B0476D1C641EF9D57E
:102FC0002846BDE8F0810A68531C0B6010707047FA
:102FD000FDF770FEFFF7C9FAFFF794F9FFF754F910
:102FE000FFF71EFAFEF722FE0A480088803883B2F7
:102FF0000948028880210020FEF7F8FC4FF4FA60AF
:10300000FDF742FC00F01AF8FFF71CF900F02CF86D
:1030100000BFFEE7AA000020A800002070B505460A
:10302000FFF766FB10B16FF0050404E0002415B152
:10303000284601F02FF8204670BD000010B5FFF7BC
:1030400057FB10B16FF0050409E00648006820B98D
:10305000012004490860002401E04FF0FF342046BD
:1030600010BD00007800002070B5FFF741FB10B1E3
:103070006FF005041FE011480068012819D100BF56
:10308000801F0021002804DB0A07130E0C4A13548A
:1030900006E00A07150E0B4A00F00F031B1FD5545C
:1030A00000BF00BF02200549086001F06FF800244E
:1030B00001E04FF0FF34204670BD00007800002092
:1030C00000E400E018ED00E02DE9FF478046894666
:1030D000144600200390FFF70BFB00284ED1B8F1F7
:1030E000000F4BD0802618258246471E44B3206827
:1030F00008B1D4F800A0A06900B1A5692DB1382DA0
:1031000003D8207900F0010018B1002004B0BDE818
:10311000F087606908B160698608A06840B1E0681E
:103120005C2805D3206918B1606908B1012708E05F
:10313000A06830B9E06820B9206910B9002700E024
:103140000027012F0CD12169A0684B463246CDE9FA
:10315000005102905146404601F094FC03900DE06E
:1031600067B903A8B2B24B465146CDE9005040467C
:1031700001F056FC012801D0002003900398C5E718
:103180002DE9F04105460E461648076816480068C6
:10319000001D00F0F7FD681C38B936B1124801680F
:1031A000091D124800F044FE1AE07C190E48006820
:1031B0004460BC4207D20C480168091D0C480068F5
:1031C00000F01CFE0CE008480168091D0948006871
:1031D00000F014FE08480068844201D206480460EA
:1031E000BDE8F0813C00002028000020AC06002053
:1031F000300000202C0000205800002010B50446AC
:1032000000F022FE24480068401C2349086023483F
:10321000006840B9214804600846006801280DD1C3
:1032200000F0FCF90AE01E48006838B91B48006845
:10323000C06AE16A884201D81848046019480068E9
:10324000401C184908600846006860641649E06A36
:103250000968884202D91449E06A0860E16A01EB12
:103260008101124A02EB8100211D00F0E1FD00F016
:1032700015FE0B48006868B108480068C06AE16A3A
:10328000884207D24FF0805009490860BFF34F8F42
:10329000BFF36F8F10BD0000380000202800002011
:1032A000440000205400002040000020FC010020C9
:1032B00004ED00E008B500F0C7FD12480068E8B969
:1032C000114800F08BFD114800F088FD0E481049B0
:1032D00008600E480F49086000200F4B0F4A10216C
:1032E00000900A2001F094F806490860084600683A
:1032F00020B10BA10348006800F090FE00F0CEFD65
:1033000008BD00006C000020C0060020D40600208C
:103310006400002068000020E80600203807002034
:10332000546D72510000000010B516E000F08CFDE5
:103330000C48C068C468201D00F024FD0A480068DD
:10334000401E0949086009480068401E0749086096
:1033500000F0A4FD204600F05FF804480068002853
:10336000E4D110BD98060020380000203400002071
:1033700070B504460D46206C70B1216CE0680144C4
:10338000E160D4E90210884201D32168E160284657
:10339000226CE168FCF744FF70BD2DE9F041044662
:1033A0000F4615464FF00008A66B206C48B9206800
:1033B00000282CD1A06801F07BFC80460020A06092
:1033C00025E07DB93946226C6068FCF729FF216C45
:1033D000606808446060D4E90101884217D320681E
:1033E000606014E03946226CE068FCF719FF216C3C
:1033F000E068411AE1602168E068884203D2216CEC
:10340000A068411AE160022D01D106B1761E701C40
:10341000A0634046BDE8F08110B5044694F8590019
:1034200030B9206B00F058FD204600F055FD1AE041
:1034300094F85900012803D1204600F04DFD12E018
:1034400094F85900022801D1012000E0002050B971
:1034500000BF502080F31188BFF34F8FBFF36F8FF1
:1034600000BF00BFFEE710BD0146084A126812689F
:103470000AB9012200E000220A600A6822B9034A60
:103480001268D268106800E00020704764000020D5
:1034900030B54FF44063174800F007042CB1C01D4D
:1034A00020F00700134C041B1B1B0246124C226029
:1034B0000024114D6C60D018083820F007000F4C24
:1034C000206000240D4D2D686C600C4D2D682C6023
:1034D0001146441A4C60094C24680C60084D4C6835
:1034E0002C60084D4C682C604FF00044064D2C6059
:1034F00030BD0000900E00207C00002084000020E1
:103500008C000020880000209800002000BFFFF7FA
:103510000BFF064800680128F9D94FF08050044994
:103520000860BFF34F8FBFF36F8FF0E7FC010020FF
:1035300004ED00E02DE9F04106460D461746984699
:10354000069C0DB9246000E02760E6632564012134
:10355000204600F0CDFF84F84C80BDE8F0812DE9D5
:10356000F05F82460E4690469B460A9F0C9C4FEAAF
:103570008801A522206BFCF765FEA8F10100216BF4
:1035800001EB800929F0070909F0070008B90120BB
:1035900000E0002050B900BF502080F31188BFF335
:1035A0004F8FBFF36F8F00BF00BFFEE786B10025CE
:1035B00007E0715D04F134004155705D00B902E02F
:1035C0006D1C102DF5D300BF00214320015502E0F2
:1035D000002084F83400382F00D33727E762E764EF
:1035E00000202065201D00F006FC04F1180000F00A
:1035F00002FC2461C7F13800A061646200206065AC
:1036000084F858005A465146484600F071FB206045
:103610000B9808B10B980460BDE8F09F10B500242A
:1036200007E004EB84010F4A02EB810000F0D6FBB7
:10363000641C382CF5D30C4800F0D0FB0B4800F08C
:10364000CDFB0B4800F0CAFB0A4800F0C7FB0A4854
:1036500000F0C4FB044809490860044808490860B0
:1036600010BD0000FC0100205C0600207006002058
:103670008406002098060020AC0600202C000020C4
:103680003000002010B50146164800E000680368CD
:103690008B42FBD30246436813448B4204D14368F8
:1036A0004C682344436001460A464B68134404684F
:1036B000A34211D10C4C03682468A34208D04B6884
:1036C0000468646823444B6003681B680B6005E072
:1036D000054B1B680B6001E003680B60884200D05B
:1036E000016010BD7C000020840000202DE9F04125
:1036F00004460D4616461F464FF0000865602461DB
:10370000B5420CD8F01BA169884202D34FF00108E2
:1037100011E0211D0948006800F070FB0BE0BE427B
:1037200004D2BD4202D34FF0010804E0211D044839
:10373000006800F063FB4046BDE8F08168000020AF
:103740006400002070B5054600F07EFBA86B08B948
:10375000012400E0002400F0A1FB204670BD70B5FC
:10376000054600F071FBA86BE96B884201D101248A
:1037700000E0002400F092FB204670BDF8B505463D
:103780000F461A480068C068C468201D00F0FAFAA5
:1037900094F8280000F00400E8B1A06941192B4614
:1037A0003A462046FFF7A2FFD8B1002003462A463A
:1037B00001460090204601F0D7FB064656B900BFEF
:1037C000502080F31188BFF34F8FBFF36F8F00BF7E
:1037D00000BFFEE705E094F8280020F0010084F81F
:1037E00028002046216A8847F8BD000064000020B8
:1037F000F0B587B0A0E00398002811DA04AE56B9FE
:1038000000BF502080F31188BFF34F8FBFF36F8F3D
:1038100000BF00BFFEE7D6E90020B168904700BFB7
:1038200003980028E6DB059C606908B9012000E0E8
:10383000002010B9201D00F0A5FA02A800F0DEF863
:10384000054603980A2875D2DFE800F00905073914
:10385000416306083A4200BF00BF00BF00BF94F8B2
:10386000280040F0010084F828000498A26981181B
:1038700003462A462046FFF739FFF8B12046216A61
:10388000884794F8280000F00400B8B100200090A8
:103890000498A169421800231946204601F064FBF0
:1038A000074657B900BF502080F31188BFF34F8FF0
:1038B000BFF36F8F00BF00BFFEE700BF3BE000BF5C
:1038C00094F8280020F0010084F8280033E000BFBD
:1038D00094F8280040F0010084F828000498A061C2
:1038E000A06908B1012000E0002050B900BF5020BD
:1038F00080F31188BFF34F8FBFF36F8F00BF00BFFE
:10390000FEE7A06941192B462A462046FFF7EEFE46
:1039100011E094F8280000F0020018B9204600F0E9
:10392000DBFA05E094F8280020F0010084F8280074
:1039300001E0FFE700BF00BF002203A904480068C0
:1039400000F074FF00287FF456AF07B0F0BD000010
:103950006C000020F8B505460C4600F073FC684684
:1039600000F04CF80646009820BB44B9B54206D892
:1039700001F03CFA31462846FFF700FF1CE03CB15D
:103980000E480068006808B9012000E000200446E5
:10399000A91B22460A48006800F056FB01F026FAEF
:1039A00050B94FF0805007490860BFF34F8FBFF305
:1039B0006F8F01E001F01AFAF8BD000068000020E6
:1039C0006C00002004ED00E00A490968096809B9A3
:1039D000012100E0002121B14FF0FF31064A1160C2
:1039E00006E004490968C968C868034A416811606B
:1039F000704700002C0000205800002070B50446DD
:103A000001F0AEF8054607480068854204D200F090
:103A10000BF80120206001E00020206001480560D3
:103A2000284670BD740000202DE9F84334E0254895
:103A30000068C068056823480068C068C468201D25
:103A400000F0A0F92046216A884794F8280000F089
:103A5000040008B3A0694619AE4207D96660246124
:103A6000211D1848006800F0C9F915E00020034640
:103A70002A4601460090204601F076FA074657B9DB
:103A800000BF502080F31188BFF34F8FBFF36F8FBB
:103A900000BF00BFFEE700BF0A480068006808B921
:103AA000012000E000200028C1D00648D0F80080A6
:103AB00005480068034908600348C0F80080BDE875
:103AC000F883000064000020680000200E480068B1
:103AD000401C08B9012000E0002050B900BF502070
:103AE00080F31188BFF34F8FBFF36F8F00BF00BF0C
:103AF000FEE700BF502080F31188BFF34F8FBFF364
:103B00006F8F00BF00BFFEE79C00002008B500BF1C
:103B10006846FFF7A9FC044620460099FFF71AFF04
:103B2000FFF766FEF4E770B5044600F08DF994F9EE
:103B3000455010E0606A08B9012000E0002038B963
:103B400004F1240001F006F918B100F0DDFA00E0FC
:103B500003E0681E45B2002DECDC00BFFF2084F8B6
:103B6000450000F09BF900F06FF994F9445010E023
:103B7000206908B9012000E0002048B904F11000D4
:103B800001F0E8F808B100F0BFFA681E45B200E0A5
:103B900001E0002DECDC00BFFF2084F8440000F0C1
:103BA0007DF970BD2DE9F04104464FF0000800F0AA
:103BB00049FB4948006808B9FFF76AFC47480068B4
:103BC0002040002870D1D4B1083404F00700B0B10F
:103BD00004F00700C0F10800044404F0070008B92D
:103BE000012000E0002050B900BF502080F3118870
:103BF000BFF34F8FBFF36F8F00BF00BFFEE7002CF6
:103C000052D03748006884424ED8364E3046056858
:103C100001E02E462D686868A04202D2286800287C
:103C2000F7D12D48006885423ED0306800F1080881
:103C3000286830606868001B102819D92F1907F010
:103C4000070008B9012000E0002050B900BF502053
:103C500080F31188BFF34F8FBFF36F8F00BF00BF9A
:103C6000FEE76868001B78606C603846FFF70AFD65
:103C70001B4968680968081A1949086008460068FD
:103C800019490968884203D2154800681649086036
:103C90001249686809680843686000202860134872
:103CA0000068401C1149086001F0A0F808F0070006
:103CB00008B9012000E0002050B900BF502080F377
:103CC0001188BFF34F8FBFF36F8F00BF00BFFEE7B8
:103CD0004046BDE8F08100008400002098000020EC
:103CE000880000207C0000208C0000209000002034
:103CF000001F4FF080730360001F21F00103036079
:103D0000001F034B03601438026020387047000026
:103D1000CD3A000833E001210220FEF787FA0021A6
:103D20002020FEF783FA012211021548FCF7AAFFB2
:103D30004FF4FA70FFF772F901212020FEF776FAAE
:103D400000210120FEF772FA00224FF480710C4826
:103D5000FCF798FF4FF4FA70FFF760F9012108466D
:103D6000FEF764FA00210220FEF760FA0122110238
:103D70000348FCF787FF4FF4FA70FFF74FF9CAE7E3
:103D80000008014001460A69D1E901309860D1E993
:103D9000010358605068884201D188685060002053
:103DA00008611068401E106010687047034B036084
:103DB000034B0B608023136070470000D80700207E
:103DC00034080020034B0360034B0B604FF48073F7
:103DD00013607047340A0020900A002000F10801A7
:103DE00041604FF0FF31816000F10801C160016165
:103DF00000210160704700210161704710B5024643
:103E00000B685C1C0CB9106907E002F1080000E0C7
:103E10004068446824689C42FAD944684C604C6805
:103E2000A160886041600A611468641C146010BD60
:103E300042684A6093688B6093685960916008613A
:103E400003685B1C0360704700BF502080F311883B
:103E5000BFF34F8FBFF36F8F00BF0E480068401C49
:103E60000C49086008460068012812D10A48006819
:103E7000C0B208B9012000E0002050B900BF5020B6
:103E800080F31188BFF34F8FBFF36F8F00BF00BF68
:103E9000FEE770479C00002004ED00E00D4800683C
:103EA00050B900BF502080F31188BFF34F8FBFF38C
:103EB0006F8F00BF00BFFEE706480068401E05493F
:103EC00008600846006820B9002080F3118800BF10
:103ED00000BF70479C00002070B506463546002E96
:103EE00044D0083D2C46224960680968084008B162
:103EF000012000E0002050B900BF502080F311885D
:103F0000BFF34F8FBFF36F8F00BF00BFFEE7206886
:103F100008B9012000E0002050B900BF502080F314
:103F20001188BFF34F8FBFF36F8F00BF00BFFEE755
:103F30000F49606809680840C0B12068B0B90C49F1
:103F4000606809688843606000F07CF9094960682E
:103F500009680844074908602046FFF793FB0648B4
:103F60000068401C0449086000F040FF70BD00007C
:103F700098000020880000209400002000204FF0CE
:103F8000E02108618861064800684FF47A71B0FB4F
:103F9000F1F0401E4FF0E0214861072008617047B2
:103FA0002400002070B5FCF715F90446102C16D338
:103FB00004F1E02090F8F05315480078854201DBC9
:103FC000012000E0002050B900BF502080F311888C
:103FD000BFF34F8FBFF36F8F00BF00BFFEE70D48E9
:103FE000006800F4E0600C490968884201D80120AB
:103FF00000E0002050B900BF502080F31188BFF3CB
:104000004F8FBFF36F8F00BF00BFFEE770BD000092
:10401000A00000200CED00E0A400002002460020DB
:104020000BE0084B53F8303033B9064B43F83010EF
:1040300003EBC0035A6002E0401C0828F1D300BF24
:1040400070470000BC0100202DE9F04105460E46F6
:1040500017462C46FFF7F8FE94F94400401C10B9AF
:10406000002084F8440094F94500401C10B9002059
:1040700084F84500FFF712FFA06B28B93A46314695
:1040800004F1240000F062F82046FFF74CFDBDE883
:10409000F081000070B504460025D4B112480068D4
:1040A00008B9012000E0002050B900BF502080F383
:1040B0001188BFF34F8FBFF36F8F00BF00BFFEE7C4
:1040C00000F0C0F800212046FFF75AF800F08EFEFD
:1040D00005463DB94FF0805004490860BFF34F8F4B
:1040E000BFF36F8F70BD00006000002004ED00E0A2
:1040F000034909680160034909684160704700008D
:10410000500000203C000020012001490860704759
:104110004C00002070B504460D4654B900BF502035
:1041200080F31188BFF34F8FBFF36F8F00BF00BFC5
:10413000FEE70548016818312046FFF75FFE0121C0
:104140002846FFF71DF870BD2800002070B5054611
:104150000E46144655B900BF502080F31188BFF3B6
:104160004F8FBFF36F8F00BF00BFFEE706480168A7
:1041700018312846FFF75CFE0CB14FF0FF362146A0
:104180003046FEF7FDFF70BD2800002010B586B058
:1041900000200590049003AA04A905A8FFF706FED5
:1041A0000022DDE904101346CDE9002102901EA192
:1041B0001F48039A00F066FC1E4908600846006824
:1041C00008B1012400E00024012C02D100F090FE8F
:1041D0000446012C15D100BF502080F31188BFF395
:1041E0004F8FBFF36F8F00BF4FF0FF301249086051
:1041F00001201249086000201149086000F072F89F
:1042000010E0601C08B1012000E0002050B900BFA0
:10421000502080F31188BFF34F8FBFF36F8F00BF23
:1042200000BFFEE706B010BD49444C450000000049
:104230000D3500085C0000205800002044000020DC
:104240003C00002002480068401C0149086070479B
:10425000600000201E48006818B101201D49086058
:1042600034E000201B4908601B4801680CE051B98C
:1042700000BF502080F31188BFF34F8FBFF36F8FC3
:1042800000BF00BFFEE7491E01EB8100134A52F850
:10429000200008B9012000E000200028E7D101EB50
:1042A00081020E4B03EB820042685268426000F1CB
:1042B00008024368934202D14268526842604268F1
:1042C000D268074B1A600448016000BF70470000C5
:1042D000600000204C00002040000020FC01002075
:1042E000280000201CB53849084600780190FF20BE
:1042F0000A4610700846007800909DF8000000F013
:10430000F0009DF80020904201D1012000E0002043
:1043100050B900BF502080F31188BFF34F8FBFF317
:104320006F8F00BF00BFFEE79DF8000000F0500057
:10433000264A10700720264A106009E024480068C9
:10434000401E234A10609DF800004006000E0090B9
:104350009DF8000000F080008028EFD01C48006825
:10436000C0F10700042801D1012000E0002050B96D
:1043700000BF502080F31188BFF34F8FBFF36F8FC2
:1043800000BF00BFFEE7124800680002104A10603C
:104390001046008800F4E06010600B4A019810702D
:1043A0000C48006840F470000A490860084600683C
:1043B00040F070400860FFF7E1FD0020064908600A
:1043C000FBF7D2FE00201CBD00E400E0A0000020AE
:1043D000A400002020ED00E09C00002010B500BFEC
:1043E000502080F31188BFF34F8FBFF36F8F00BF52
:1043F00000F0BCFB18B14FF080500449086000BFCA
:10440000002080F3118800BF10BD000004ED00E023
:104410002DE9F84380460E4617461D46DDF82090EC
:10442000B8F1000F01D0012000E0002050B900BF1A
:10443000502080F31188BFF34F8FBFF36F8F00BF01
:1044400000BFFEE70DB1012000E0002050B900BF21
:10445000502080F31188BFF34F8FBFF36F8F00BFE1
:1044600000BFFEE707B10EB1012000E0002050B907
:1044700000BF502080F31188BFF34F8FBFF36F8FC1
:1044800000BF00BFFEE707B90EB9012000E0002021
:1044900050B900BF502080F31188BFF34F8FBFF396
:1044A0006F8F00BF00BFFEE750200090009850289B
:1044B00001D1012000E0002050B900BF502080F35E
:1044C0001188BFF34F8FBFF36F8F00BF00BFFEE7B0
:1044D00000BF2C464CB1012084F846004B463A46BA
:1044E000314640460094FFF725F82046BDE8F883A2
:1044F00070B505460E462C4654B900BF502080F3D7
:104500001188BFF34F8FBFF36F8F00BF00BFFEE76F
:10451000FFF79AFCD4E90F12206801FB0200A060AB
:104520000020A06320686060E06B401E226C216860
:1045300000FB0211E160FF2084F8440084F845008C
:104540009EB9206908B9012000E00020A8B904F153
:10455000100000F0FFFB80B14FF080500949086067
:10456000BFF34F8FBFF36F8F07E004F11000FFF729
:1045700035FC04F12400FFF731FCFFF78FFC01202C
:1045800070BD000004ED00E02DE9FF4383B0064656
:1045900088461D464FF00009344654B900BF5020EC
:1045A00080F31188BFF34F8FBFF36F8F00BF00BF41
:1045B000FEE7B8F1000F01D1206C08B9012000E03E
:1045C000002050B900BF502080F31188BFF34F8FF7
:1045D000BFF36F8F00BF00BFFEE7022D02D1E06B7B
:1045E000012801D1012000E0002050B900BF502077
:1045F00080F31188BFF34F8FBFF36F8F00BF00BFF1
:10460000FEE700F09DFA08B9059808B9012000E01E
:10461000002050B900BF502080F31188BFF34F8FA6
:10462000BFF36F8F00BF00BFFEE700BFFFF70CFCBA
:10463000A06BE16B884201D3022D28D12A46414666
:104640002046FEF7AAFE0746606A08B9012000E08E
:10465000002068B904F1240000F07CFB88B14FF021
:10466000805032490860BFF34F8FBFF36F8F08E06F
:104670003FB14FF080502D490860BFF34F8FBFF31B
:104680006F8FFFF70BFC012007B0BDE8F0830598A2
:1046900018B9FFF703FC0020F6E7B9F1000F04D1C9
:1046A00001A8FFF725FD4FF00109FFF7F7FBFFF722
:1046B000C9FDFFF7C9FB94F94400401C10B9002064
:1046C00084F8440094F94500401C10B9002084F897
:1046D0004500FFF7E3FB05A901A800F05BF9F0B97D
:1046E0002046FFF73CF8A0B104F110000599FFF750
:1046F00011FD2046FFF717FA00F078FB002895D14E
:104700004FF0805009490860BFF34F8FBFF36F8FA0
:104710008CE72046FFF707FA00F068FB86E72046A3
:10472000FFF701FA00F062FB0020ADE704ED00E0C6
:104730002DE9F84F07468A4690461E463C4654B936
:1047400000BF502080F31188BFF34F8FBFF36F8FEE
:1047500000BF00BFFEE7BAF1000F01D1206C08B91D
:10476000012000E0002050B900BF502080F31188E4
:10477000BFF34F8FBFF36F8F00BF00BFFEE7022E66
:1047800002D1E06B012801D1012000E0002050B9E6
:1047900000BF502080F31188BFF34F8FBFF36F8F9E
:1047A00000BF00BFFEE7FFF7FDFB00BF5021EFF3A6
:1047B000118081F31188BFF34F8FBFF36F8F00BF5C
:1047C0000546A06BE16B884201D3022E25D194F9F6
:1047D00045B0A06B0090324651462046FEF7DDFD05
:1047E0000BF1010088B9606A08B9012000E00020DF
:1047F00050B904F1240000F0ADFA28B1B8F1000F6F
:1048000002D00120C8F8000004E00BF1010040B222
:1048100084F845004FF0010901E04FF0000900BFA6
:1048200085F3118800BF4846BDE8F88F2DE9F741B0
:1048300083B005460E464FF000082C4654B900BF21
:10484000502080F31188BFF34F8FBFF36F8F00BFED
:1048500000BFFEE70EB9206C08B9012000E000207F
:1048600050B900BF502080F31188BFF34F8FBFF3C2
:104870006F8F00BF00BFFEE700F062F908B905982E
:1048800008B9012000E0002050B900BF502080F39B
:104890001188BFF34F8FBFF36F8F00BF00BFFEE7DC
:1048A00000BFFFF7D1FAA76BF7B131462046FEF7FC
:1048B0005FFD781EA063206908B9012000E0002098
:1048C00060B904F1100000F045FA38B14FF08050A3
:1048D0002F490860BFF34F8FBFF36F8FFFF7DEFAEA
:1048E000012006B0BDE8F081059818B9FFF7D6FAA7
:1048F0000020F6E7B8F1000F04D101A8FFF7F8FB9C
:104900004FF00108FFF7CAFAFFF79CFCFFF79CFA8B
:1049100094F94400401C10B9002084F8440094F934
:104920004500401C10B9002084F84500FFF7B6FA96
:1049300005A901A800F02EF8F0B92046FEF702FF05
:10494000A0B104F124000599FFF7E4FB2046FFF72E
:10495000EAF800F04BFA0028A3D14FF080500C4940
:104960000860BFF34F8FBFF36F8F9AE72046FFF7C2
:10497000DAF800F03BFA94E72046FFF7D4F800F0AD
:1049800035FA2046FEF7DEFE00288AD00020A8E790
:1049900004ED00E070B505460C4655B900BF502047
:1049A00080F31188BFF34F8FBFF36F8F00BF00BF3D
:1049B000FEE754B900BF502080F31188BFF34F8F3A
:1049C000BFF36F8F00BF00BFFEE7FFF73DFA12484D
:1049D00002686868131A2068401C08B9002617E0AE
:1049E0000E4928680968884204D06868904201D856
:1049F00001260DE02068984207D92068C01A20607F
:104A00002846FFF775FB002602E000202060012603
:104A1000FFF744FA304670BD3C00002050000020F3
:104A20002DE9FF4F85B0804689461746DDE912AB78
:104A3000B800FFF7B7F8064656B15C20FFF7B2F8AA
:104A400004460CB1266304E03046FFF745FA00E067
:104A500000248CB1002084F85900CDE900ABCDE9E9
:104A600002403A4649464046089BFEF778FD2046FC
:104A7000FEF7C4FB012501E04FF0FF35284609B0E1
:104A8000BDE8F08F2DE9F04F85B007468846914686
:104A90009A46DDE90EB6109C0EB1012000E0002020
:104AA00050B900BF502080F31188BFF34F8FBFF380
:104AB0006F8F00BF00BFFEE70CB1012000E00020B7
:104AC00050B900BF502080F31188BFF34F8FBFF360
:104AD0006F8F00BF00BFFEE75C20039003985C2847
:104AE00001D1012000E0002050B900BF502080F328
:104AF0001188BFF34F8FBFF36F8F00BF00BFFEE77A
:104B000000BFB4B1AEB125462C462E63022085F815
:104B10005900002004A953464A46CDE900B1CDE929
:104B2000025041463846FEF71AFD2846FEF766FB5E
:104B300001E000200490049805B0BDE8F08F00006B
:104B40000549096809B9012005E00449096809B95E
:104B5000022000E000207047440000206000002098
:104B600001490868704700003C0000202DE9F04131
:104B70004FF000084348006800287BD14248006895
:104B8000451C4148056015BB40480068006808B9ED
:104B9000012000E0002050B900BF502080F31188B0
:104BA000BFF34F8FBFF36F8F00BF00BFFEE73748E3
:104BB0000768374800683549086035480760354858
:104BC0000068401C33490860FEF7FEFE00BF324813
:104BD000006885423BD300BF2C480068006808B9D4
:104BE000012000E0002020B14FF0FF302A4908608A
:104BF0002CE026480068C068C4686668B54202D2E6
:104C00002548066022E0201DFFF7BCF8A06A18B115
:104C100004F11800FFF7B6F82049E06A09688842F5
:104C200002D91E49E06A0860E16A01EB81011C4A71
:104C300002EB8100211DFFF7FBF81A49E06A0968C1
:104C4000C96A8842C8D34FF00108C5E700BF1548BC
:104C50000068C06A00EB8000114951F8200001286B
:104C600001D94FF001081048006808B14FF0010861
:104C700005E0FFE70D480068401C0C49086040460D
:104C8000BDE8F081600000203C0000202C000020E6
:104C9000300000205000002058000020400000207C
:104CA000FC010020280000204C00002048000020CB
:104CB00070B505462C460026002D43D022480068DA
:104CC000844201D1012000E0002050B900BF5020F3
:104CD00080F31188BFF34F8FBFF36F8F00BF00BF0A
:104CE000FEE7206D50B900BF502080F31188BFF35C
:104CF0004F8FBFF36F8F00BF00BFFEE7206D401ED8
:104D00002065E16CE06A88421CD0206DD0B9201D7E
:104D1000FFF738F8E06CE062E06AC0F13800A061AB
:104D20000A49E06A0968884202D90849E06A0860CD
:104D3000E16A01EB8101064A02EB8100211DFFF7C8
:104D400077F80126304670BD280000204000002082
:104D5000FC01002070B50646F068C46854B900BF75
:104D6000502080F31188BFF34F8FBFF36F8F00BFC8
:104D700000BFFEE704F11800FFF704F815480068CB
:104D8000A0B9201DFEF7FEFF1349E06A09688842BA
:104D900002D91149E06A0860E16A01EB81010F4A1A
:104DA00002EB8100211DFFF743F804E004F1180134
:104DB0000B48FFF73DF80B49E06A0968C96A884269
:104DC00004D9012501200849086000E00025284693
:104DD00070BD00006000002040000020FC010020A9
:104DE00084060020280000204C00002070B500241C
:104DF00000263648006850B900BF502080F3118863
:104E0000BFF34F8FBFF36F8F00BF00BFFEE7FFF709
:104E10001BF82E480068401E2C49086008460068B0
:104E200000284ED12A48006800284AD023E02948AB
:104E3000C068C46804F11800FEF7A4FF201DFEF747
:104E4000A1FF2549E06A0968884202D92249E06A3F
:104E50000860E16A01EB8101204A02EB8100211D1B
:104E6000FEF7E6FF1E49E06A0968C96A884202D374
:104E700001201C4908601748006808B9012000E0BB
:104E800000200028D3D00CB1FEF79EFD164805681F
:104E900065B100BFFFF76AFE10B10120114908603B
:104EA0006D1E002DF6D100200F4908600D480068E6
:104EB00038B1012630070D490860BFF34F8FBFF3AB
:104EC0006F8FFEF7EBFF304670BD000060000020E2
:104ED000380000208406002040000020FC01002053
:104EE000280000204C0000204800002004ED00E0D5
:104EF00010B586B00024FEF7DDF916480068D0B181
:104F000000200590049003AA04A905A8FEF75AFF03
:104F10000222DDE904100023CDE9002102900EA158
:104F20000F48039AFFF7AEFD0E4908600846006877
:104F300000B1012400BF54B900BF502080F3118894
:104F4000BFF34F8FBFF36F8F00BF00BFFEE7204658
:104F500006B010BD6C000020546D722053766300C3
:104F60000D3B0008700000202DE9FF4704460D4668
:104F700016461F46DDF830804FF0000954B900BFD7
:104F8000502080F31188BFF34F8FBFF36F8F00BFA6
:104F900000BFFEE71448006810B300950196029424
:104FA000062D15DAFFF7CCFD022808D10023424672
:104FB00069460D480068FFF7E7FA814610E00023D4
:104FC0001A46694608480068FFF7DEFA814607E09E
:104FD00000233A46694604480068FFF7A9FB81466A
:104FE000484604B0BDE8F0876C0000209C8B0008A8
:104FF00000000000000000000000000000000000B1
:105000000002000018000000000000000000000086
:1050100002030405060708090A0B0C0D0E0F1010F9
:105020000102000000000000000001020304060766
:105030000809000000000102030400000000000055
:105040000000000000000000000000000018181818
:105050001818180800081800000000000034242464
:1050600024000000000000000000000000001624E2
:105070007F2424247E2424000000000000083E68D1
:1050800048681C1612127C10100000000061D296B5
:10509000740810162949C6000000000000003C6496
:1050A0006438724ACE467F000000000000181818CD
:1050B00018000000000000000000000000040818B4
:1050C00010303030301010180C0400000020100890
:1050D000080C0404040C08181020000000080A340E
:1050E0001C6A080000000000000000000000000032
:1050F0001818187F181818000000000000000000A1
:105100000000000000181808300000000000000037
:105110000000003C00000000000000000000000053
:105120000000000000181800000000000002060443
:105130000C080810102020400000000000003C6611
:1051400042475B7342663C00000000000000187894
:105150004808080808087E000000000000003C46DF
:105160000606040810207E000000000000007C06F7
:1051700006043C0202067C000000000000000C1C3B
:1051800014246444FF0404000000000000007E605A
:1051900060607E0202067C000000000000001E30FD
:1051A0006048764242623C000000000000007E023F
:1051B00006040C08181030000000000000003C62DB
:1051C00042361C6642423C000000000000003C6683
:1051D0004242661A0204780000000000000000004D
:1051E000181800000018180000000000000000005F
:1051F0001818000000181808300000000000000017
:1052000004183060100C06000000000000000000D0
:1052100000007E007E000000000000000000000092
:10522000301804060C1020000000000000301C069E
:10523000060618100010100000000000001C22419B
:1052400041DDB5A5A5AF94C0403C00000000181C8E
:10525000342426627E43C1000000000000007C462A
:1052600042467C4242427C000000000000001E20BA
:105270004040404040603E000000000000007C468E
:1052800042434343424678000000000000007E6035
:1052900060607E6060607E000000000000007E6054
:1052A00060607E60606060000000000000001E60C2
:1052B0004040CE4242623E000000000000004242F8
:1052C00042427E42424242000000000000007E183E
:1052D0001818181818187E000000000000007C0440
:1052E0000404040404447800000000000000424468
:1052F000485070584C44420000000000000020203C
:105300002020202020203E000000000000006266D7
:10531000675F5B5BC1C1C10000000000000062620A
:1053200072525A4A4E4646000000000000003C629D
:1053300043C3C3C343623C000000000000007C463E
:1053400042424678404040000000000000003C62BD
:1053500043C3C3C343623C180F00000000007C66D7
:1053600062667C6C646662000000000000003E60C3
:1053700040601C0602027C000000000000007F1854
:1053800018181818181818000000000000004242F1
:105390004242424242623C00000000000000C14321
:1053A00042622624341C1800000000000000C1C125
:1053B00041495B5B766666000000000000004366C2
:1053C0003418181C2466C300000000000000C1420D
:1053D00066341C18181818000000000000007E0237
:1053E000040C181020607E0000000000001C10104B
:1053F0001010101010101010101C00000040202081
:10540000101008080C04060200000000003C0C0C00
:105410000C0C0C0C0C0C0C0C0C3C00000000181CB0
:1054200024620000000000000000000000000000F6
:10543000000000000000000000FF0000002010003D
:10544000000000000000000000000000000000005C
:105450003C06023E42467A00000000000040404008
:105460005C62424242427C000000000000000000FA
:105470001E20604060203E0000000000000202028A
:105480003E62424242663A00000000000000000016
:105490003C62427E40603E0000000000000F181099
:1054A000107E10101010100000000000000000001E
:1054B0003F66426658403E43423C00000040404048
:1054C0005C624242424242000000000000181800A4
:1054D0007808080808087E000000000000040C009E
:1054E0007C040404040404040C7800000060606080
:1054F000626C787068646200000000000078080840
:105500000808080808087E000000000000000000ED
:10551000764B4B4B4B4B4B00000000000000000053
:105520005C62424242424200000000000000000073
:105530003C62424342623C00000000000000000068
:105540005C62424242427C40404000000000000059
:105550003E62424242663A0202020000000000003F
:105560006E72636060606000000000000000000078
:105570003E20203C06027C000000000000001010CD
:10558000FE10101010101E000000000000000000AF
:105590004242424242663A00000000000000000021
:1055A0004342662434181800000000000000000088
:1055B000C1C15B5A5E66660000000000000000008A
:1055C00062261C181C26620000000000000000007B
:1055D00043426624341C181830E00000000000002C
:1055E0007E060C1810207E0000000000000E18102F
:1055F0001010307010101010180E00000808080865
:1056000008080808080808080808000000301808FA
:1056100008080C0E080808081830000000000000F8
:105620000000714B060000000000000000000000B8
:10563000000000000000000000000000000000006A
:10564000000000000000000000000000000000005A
:10565000000000000000000000000000000000004A
:105660000000000003800180018001800180018032
:1056700001800180018001800000000003C003C0A0
:10568000000000000000000000000000000000001A
:10569000000000000E700E700E700C300000000054
:1056A00000000000000000000000000000000000FA
:1056B00000000000000000000000000000000000EA
:1056C0000000000000000618063806307FFE0C308F
:1056D0000C300C300C307FFE0C601C6018601860C1
:1056E00000000000000000000000000000000000BA
:1056F000000000C000C00FF83CC831C031803D80C0
:105700001F8003F001F8031C030C031C3FF83FE06B
:10571000070006000000000000000000000000007C
:1057200000001C007E0E630C631863307E6000C0B6
:1057300001800300077C0EE61CC618C630C6607CDC
:105740000000000000000000000000000000000059
:10575000000000000FE01CF0387038701C601FC0A3
:105760000F003F8C71CC60EC607C70383CFC1FCE2D
:105770000000000000000000000000000000000029
:105780000000000003C001800180018000000000D3
:105790000000000000000000000000000000000009
:1057A00000000000000000000000000000000000F9
:1057B0000000003000E001C0018003000700060087
:1057C00006000E000E000E000E000600070003008B
:1057D000038001C000E00030000000000000000075
:1057E00000000C0006000380018001C000E00060A2
:1057F00000600070007000700060006000E000C099
:105800000180038006000C00000000000000000082
:1058100000000000018011881DB803C007E03DBCF6
:10582000018801800000000000000000000000006E
:105830000000000000000000000000000000000068
:1058400000000000000000000000018001800180D5
:10585000018001807FFE01800180018001800000C5
:105860000000000000000000000000000000000038
:105870000000000000000000000000000000000028
:105880000000000000000000000003C003C001C0D1
:1058900001C003801F0000000000000000000000A5
:1058A00000000000000000000000000000000000F8
:1058B000000000000FF000000000000000000000E9
:1058C00000000000000000000000000000000000D8
:1058D00000000000000000000000000000000000C8
:1058E0000000000000000000000003C003C003C06F
:1058F00000000000000000000000000000000000A8
:1059000000000000001800380030006000E000C017
:1059100001C001800300030006000E000C001C0003
:10592000180030000000000000000000000000002F
:105930000000000001800FF01C38381C301C707E05
:1059400070EE738E7E0E7C0C300C381C1E780FE0CF
:105950000000000000000000000000000000000047
:1059600000000000000007C01FC039C001C001C016
:1059700001C001C001C001C001C001C03FFC3FFC2B
:105980000000000000000000000000000000000017
:105990000000000003801FF018380038001800389D
:1059A0000038007001E0038007001C003FFC3FFC52
:1059B00000000000000000000000000000000000E7
:1059C0000000000007801FF0003800380038003069
:1059D00007E007F00038001C001C001820F83FE02A
:1059E00000000000000000000000000000000000B7
:1059F00000000000000000F001B0033007300E305E
:105A00001C30383070307FFE7FFE003000300030B8
:105A10000000000000000000000000000000000086
:105A20000000000000001FF81800180018001800FF
:105A30001FE000F8001C001C001C003800F01FC014
:105A40000000000000000000000000000000000056
:105A500000000000000003F80F001C0018003000D8
:105A600037F83C3C300C300C380C381C1E380FF02A
:105A70000000000000000000000000000000000026
:105A80000000000000003FFC001C001800380070FF
:105A9000006000E001C001800380070006000E00E6
:105AA00000000000000000000000000000000000F6
:105AB0000000000003C01FF8381C381C381C1C38BC
:105AC0000FF007F01C78381C300C381C3C380FF0F5
:105AD00000000000000000000000000000000000C6
